S0130000504F5254204472697665722E7372656340
S11300000C942A000C9456030C9447000C9447005B
S11300100C9447000C9447000C943D040C94F10399
S11300200C9447000C9418040C9447000C94B003EF
S11300300C9447000C9447000C9447000C94470020
S11300400C947D030C9447000C9447000C944700D7
S11300500C94470011241FBECFE5D8E0DEBFCDBF0E
S113006010E0A0E6B0E0EAE4FDE002C005900D92E5
S1130070A63BB107D9F720E0A6EBB0E001C01D9282
S1130080A93DB207E1F70E9449000C94A3060C9421
S113009000000E94B50481E00E944A030E94D90234
S11300A00E94EC020E94F00088E890E00E946A013D
S11300B02FEF83ED90E3215080409040E1F700C0A2
S11300C000008DE990E00E946A012FEF87EA91E633
S11300D0215080409040E1F700C000000E942602B9
S11300E061E080E00E940B028BEA90E00E946A01CA
S11300F00E9430020E943F026B017C016BE080E0B1
S11301000E940B02C701B6010E9486012FEF89E607
S113011098E1215080409040E1F700C000000E9427
S11301202602DECFCF93C82F60E081E00E94520206
S113013060E082E00E945202C4FB662760F983E01B
S11301400E945202C5FB662760F984E00E945202B5
S1130150C6FB662760F985E00E9452026C2F661F79
S11301606627661F86E00E94520261E082E00E94D8
S113017052028FE99FE00197F1F700C0000060E0B0
S113018082E00E9452026C2F617083E00E9452024E
S1130190C1FB662760F984E00E945202C2FB662715
S11301A060F985E00E945202C3FB662760F986E08D
S11301B00E94520261E082E00E9452028FE99FE0B5
S11301C00197F1F700C0000060E082E00E94520253
S11301D08FE19EE40197F1F700C00000CF910895EC
S11301E083E30E94920082E30E94920088E20E94CC
S11301F0920081E00E94920086E00E9492008CE0CE
S11302000E94920082E00E9492008FE19EE4019796
S1130210F1F700C000000895CF93C82F61E081E09A
S11302200E94520260E082E00E945202C4FB6627F0
S113023060F983E00E945202C5FB662760F984E0FE
S11302400E945202C6FB662760F985E00E945202B2
S11302506C2F661F6627661F86E00E94520261E0CB
S113026082E00E9452028FE99FE00197F1F700C0FB
S1130270000060E082E00E9452026C2F617083E013
S11302800E945202C1FB662760F984E00E94520278
S1130290C2FB662760F985E00E945202C3FB662711
S11302A060F986E00E94520261E082E00E945202FC
S11302B08FE99FE00197F1F700C0000060E082E061
S11302C00E9452028FE19EE40197F1F700C0000002
S11302D0CF9108950F931F93CF93FC0180818823BE
S11302E059F08F01C0E00E940C01CF5FF801EC0FC0
S11302F0F11D80818111F7CF8FE19EE40197F1F721
S113030000C00000CF911F910F9108958F929F928A
S1130310AF92BF92CF92DF92EF92FF920F931F930F
S11303208B019C01611571058105910521F480E320
S11303300E940C015FC0992334F0161617061806A4
S113034019062CF057C08DE20E940C0153C061E0E5
S113035070E080E090E00F2EFAE08F2E912CA12C1B
S1130360B12CF02DDC01CB01880F991FAA1FBB1FF4
S11303706C017D01CC0CDD1CEE1CFF1CCC0CDD1CC7
S1130380EE1CFF1CC80ED91EEA1EFB1EC901B801D3
S1130390A50194010E9462066C0D7D1D8E1D9F1D9A
S11303A0022F132F242F352F1016110612061306B1
S11303B0CCF26230710581059105E4F00F2EFAE06C
S11303C08F2E912CA12CB12CF02DA50194010E940B
S11303D06206E22EF32E042F152F80E3860F0E946F
S11303E00C016E2D7F2D802F912F623071058105B8
S11303F091055CF78FE19EE40197F1F700C00000DE
S11304001F910F91FF90EF90DF90CF90BF90AF902E
S11304109F908F900895CF93DF9300D0CDB7DEB730
S113042090E8998390EC9A83FE01E80FF11D818195
S1130430860F0E9492008FE19EE40197F1F700C0BD
S113044000000F900F90DF91CF91089581E00E94FA
S113045092008FE19EE40197F1F700C00000089537
S113046061E08CE10E9452028FE39CE90197F1F76D
S113047000C0000060E08CE10E94520208950E94D6
S1130480F5020E94670526E933E44BE05DE30E9430
S1130490CD0520E030E040E05FE30E94CD050E94FE
S11304A038050895982F96959695969587706623A6
S11304B009F43FC0613009F07BC0913099F028F015
S11304C09230E9F0933041F108954BB321E030E0EC
S11304D0B90102C0660F771F8A95E2F7CB01842B1E
S11304E08BBB089548B321E030E0B90102C0660F28
S11304F0771F8A95E2F7CB01842B88BB089545B317
S113050021E030E0B90102C0660F771F8A95E2F757
S1130510CB01842B85BB089542B321E030E0B901BF
S113052002C0660F771F8A95E2F7CB01842B82BB4A
S113053008959130A1F028F09230F9F0933059F1F8
S113054008954BB321E030E0B90102C0660F771F74
S11305508A95E2F7CB01809584238BBB089548B339
S113056021E030E0B90102C0660F771F8A95E2F7F7
S1130570CB018095842388BB089545B321E030E006
S1130580B90102C0660F771F8A95E2F7CB01809507
S1130590842385BB089542B321E030E0B90102C051
S11305A0660F771F8A95E2F7CB018095842382BB7F
S11305B008958FB58E7F8FBD8FB58D7F8FBD8FB51D
S11305C0877F8FBD8FB58F7E8FBD89B78B7F89BFA6
S11305D08EB585608EBD089517BC16BC8EB580643B
S11305E08EBD89B7806289BF08958091C2009091C1
S11305F0C300A091C400B091C5000297A105B10544
S113060009F03FC08091C6009091C700A091C80036
S1130610B091C9004091CA005091CB006091CC00C8
S11306207091CD00841B950BA60BB70B880F991FF7
S1130630AA1FBB1F880F991FAA1FBB1F880F991FD2
S1130640AA1FBB1F880F991FAA1FBB1F880F991FC2
S1130650AA1FBB1F880F991FAA1FBB1F8093BE0030
S11306609093BF00A093C000B093C1001092C20049
S11306701092C3001092C4001092C50089B7806222
S113068089BF6091BE007091BF008091C0009091BD
S1130690C1000895882331F0813039F48FB7806820
S11306A08FBF08958FB78F778FBF08951F920F92D2
S11306B00FB60F9211242F933F934F935F936F9331
S11306C07F938F939F93AF93BF93EF93FF93E091A7
S11306D0CF00F091D0000995FF91EF91BF91AF91B8
S11306E09F918F917F916F915F914F913F912F9146
S11306F00F900FBE0F901F9018951F920F920FB678
S11307000F9211242F933F934F935F938F939F9353
S1130710AF93BF9344B155B128E833E1429FC00180
S1130720439F900D529F900D1124892F99278695F0
S11307308695A0E0B0E08093D1009093D200A0937E
S1130740D300B093D400BF91AF919F918F915F91EB
S11307504F913F912F910F900FBE0F901F901895BE
S11307601F920F920FB60F9211242F933F934F9322
S11307705F936F937F938F939F93AF93BF93EF9305
S1130780FF938091CE008F5F8093CE0090E0A0E035
S1130790B0E04091BA005091BB006091BC007091F0
S11307A0BD0084179507A607B70751F4E091CF0061
S11307B0F091D00009951092CE008091B60082BFCE
S11307C0FF91EF91BF91AF919F918F917F916F9125
S11307D05F914F913F912F910F900FBE0F901F90FB
S11307E018951F920F920FB60F9211242F933F93D7
S11307F04F935F936F937F938F939F93AF93BF9325
S1130800EF93FF93E091CF00F091D0000995FF9111
S1130810EF91BF91AF919F918F917F916F915F9174
S11308204F913F912F910F900FBE0F901F901895ED
S11308301F920F920FB60F9211248F939F93AF9331
S1130840BF938091D5009091D600A091D700B0912C
S1130850D8000196A11DB11D8093D5009093D600B8
S1130860A093D700B093D800BF91AF919F918F917F
S11308700F900FBE0F901F9018951F920F920FB6F6
S11308800F9211242F933F938F939F93AF93BF9312
S11308908091C2009091C300A091C400B091C500A2
S11308A00196A11DB11D8093C2009093C300A09333
S11308B0C400B093C5008091C2009091C300A09180
S11308C0C400B091C5000197A105B105C1F486B576
S11308D097B5A0E0B0E08093CA009093CB00A093BA
S11308E0CC00B093CD001092D5001092D600109297
S11308F0D7001092D8008EB58F7B8EBD2BC080910F
S1130900C2009091C300A091C400B091C5000297A9
S1130910A105B105F9F426B537B58091D5009091BC
S1130920D600A091D700B091D800DC019927882780
S1130930820F931FA11DB11D8093C6009093C70021
S1130940A093C800B093C9008EB580648EBD89B7EA
S11309508F7D89BFBF91AF919F918F913F912F91CF
S11309600F900FBE0F901F901895E0E6F0E048E856
S113097050E061E070E08081982F96959695969569
S113098087702181222319F02130C9F16BC0913085
S113099091F028F09230D9F0933029F163C09AB3E2
S11309A09B0102C0220F331F8A95E2F7822F8095A4
S11309B089238ABB57C097B39B0102C0220F331F00
S11309C08A95E2F7822F8095892387BB4BC094B325
S11309D09B0102C0220F331F8A95E2F7822F809574
S11309E0892384BB3FC091B39B0102C0220F331FF4
S11309F08A95E2F7822F8095892381BB33C0913099
S1130A0089F028F09230C9F0933011F12BC02AB349
S1130A10DB0102C0AA0FBB1F8A95E2F7CD01822B2E
S1130A208ABB20C027B3DB0102C0AA0FBB1F8A9573
S1130A30E2F7CD01822B87BB15C024B3DB0102C0D2
S1130A40AA0FBB1F8A95E2F7CD01822B84BB0AC093
S1130A5021B3DB0102C0AA0FBB1F8A95E2F7CD01C7
S1130A60822B81BB3296E417F50709F084CF0895F1
S1130A700E94AC0588F09F5798F0B92F9927B75179
S1130A80B0F0E1F0660F771F881F991F1AF0BA952E
S1130A90C9F714C0B13091F00E94C605B1E00895C1
S1130AA00C94C605672F782F8827B85F39F0B93FB3
S1130AB0CCF3869577956795B395D9F73EF49095E1
S1130AC08095709561957F4F8F4F9F4F0895E8945F
S1130AD009C097FB3EF490958095709561957F4F82
S1130AE08F4F9F4F9923A9F0F92F96E9BB27939530
S1130AF0F695879577956795B795F111F8CFFAF440
S1130B00BB0F11F460FF1BC06F5F7F4F8F4F9F4F70
S1130B1016C0882311F096E911C0772321F09EE8CE
S1130B20872F762F05C0662371F096E8862F70E034
S1130B3060E02AF09A95660F771F881FDAF7880F0E
S1130B409695879597F9089557FD9058440F551F2A
S1130B5059F05F3F71F04795880F97FB991F61F03B
S1130B609F3F79F087950895121613061406551FB2
S1130B70F2CF4695F1DF08C0161617061806991F1E
S1130B80F1CF86957105610508940895E894BB2713
S1130B9066277727CB0197F908950E94E0050C9406
S1130BA051060E94430638F00E944A0620F095231D
S1130BB011F00C943A060C94400611240C94C705C9
S1130BC00E94A40570F3959FC1F3950F50E0551F43
S1130BD0629FF001729FBB27F00DB11D639FAA278E
S1130BE0F00DB11DAA1F649F6627B00DA11D661FDD
S1130BF0829F2227B00DA11D621F739FB00DA11DFE
S1130C00621F839FA00D611D221F749F3327A00DB7
S1130C10611D231F849F600D211D822F762F6A2F53
S1130C2011249F5750409AF0F1F088234AF0EE0FB8
S1130C30FF1FBB1F661F771F881F91505040A9F7E5
S1130C409E3F510580F00C943A060C94C7055F3F13
S1130C50E4F3983ED4F3869577956795B795F79521
S1130C60E7959F5FC1F7FE2B880F911D9695879599
S1130C7097F9089597F99F6780E870E060E0089518
S1130C809FEF80EC089500240A94161617061806A0
S1130C900906089500240A9412161306140605067C
S1130CA00895092E0394000C11F4882352F0BB0F0D
S1130CB040F4BF2B11F460FF04C06F5F7F4F8F4F70
S1130CC09F4F0895052E97FB1EF400940E94790609
S1130CD057FD07D00E94810607FC03D04EF40C9404
S1130CE0790650954095309521953F4F4F4F5F4F72
S1130CF0089590958095709561957F4F8F4F9F4F84
S1130D000895A1E21A2EAA1BBB1BFD010DC0AA1F48
S1130D10BB1FEE1FFF1FA217B307E407F50720F060
S1130D20A21BB30BE40BF50B661F771F881F991FDB
S1130D301A9469F760957095809590959B01AC0124
S10D0D40BD01CF010895F894FFCF20
S1130D4A0101020103010401050106010B010C0161
S1130D5A0D010E011A001B001C011D001E001A00C1
S1130D6A12010000000000004D6561737572656D23
S1130D7A656E745F44697374616E6365004D616482
S1130D8A6520627920416D67616400444973746126
S1090D9A6E63653A0000DF
S9030000FC
